:100000000C9434000C9446000C9446000C9446006A
:100010000C9446000C9446000C9446000C94460048
:100020000C9446000C9446000C9446000C94460038
:100030000C9446000C9446000C9446000C94460028
:100040000C9446000C9446000C9446000C94460018
:100050000C9446000C9446000C9446000C94460008
:100060000C9446000C94460011241FBECFEFD8E03C
:10007000DEBFCDBF21E0A0E0B1E001C01D92A03005
:10008000B207E1F70E94B1000C9419010C94000032
:10009000E0E8F0E0808181688083E1E8F0E0808141
:1000A0008A6080838AB188608AB9089590E09093CD
:1000B0008900809388000895ECE7F0E080818064F7
:1000C0008083EAE7F0E080818860808380818768B0
:1000D0008083EEE7F0E08081806280830895ECE722
:1000E000F0E09081907F90839081892B8083EAE774
:1000F000F0E080818064808380917A0086FDFCCF6F
:1001000080917800909179000895ECE7F0E090817B
:10011000907F90839081892B8083EAE7F0E0808153
:100120008064808380917A0086FDFCCF8091780086
:10013000909179000895ECE7F0E09081907F9083B2
:100140009081892B8083EAE7F0E08081806480835E
:1001500080917A0086FDFCCF8091780090917900A3
:10016000089560E074E080E00E94EA0060E074E0DE
:1001700080E00E9403010E945C000E94480080E031
:100180000E94010180E00E94170186E00E946F003A
:10019000182F8FE39CE90197F1F700C0000087E07A
:1001A0000E948500D82F85E00E949B00C82F812FD8
:1001B0000E9401018D2F0E9417018C2F0E94560072
:1001C0009FE728E381E0915020408040E1F700C0A4
:1001D0000000DBCF9AB190649AB914BC882321F057
:1001E00084B5806C84BD03C084B5806884BD84B54B
:1001F000836084BD6115744019F485B5856085BD43
:10020000089587BD08959AB190629AB915BC882364
:1002100021F084B5806384BD03C084B5806284BD51
:1002200084B5836084BD85B5856085BD089588BD2E
:060230000895F894FFCFD1
:00000001FF
