:100000000C9434000C9449000C9449000C94490061
:100010000C9449000C9449000C9449000C9449003C
:100020000C9449000C9449000C9449000C9449002C
:100030000C9449000C9449000C9449000C9449001C
:100040000C9449000C9449000C9449000C9449000C
:100050000C9449000C9449000C9449000C944900FC
:100060000C9449000C94490011241FBECFEFD8E036
:10007000DEBFCDBF11E0A0E0B1E0E8E3F2E002C0F6
:1000800005900D92AC32B107D9F70E94A7000C94ED
:100090001A010C9400009093C5008093C40088E17D
:1000A0008093C10086E08093C20008959091C000C3
:1000B00095FFFCCF8093C60008958091C0008823EF
:1000C000E4F78091C60008950F931F93CF93DF93B9
:1000D0008C01C0E0D0E003C00E9456002196F801D8
:1000E000EC0FFD1F80818111F7CFDF91CF911F9120
:1000F0000F91089580E091E00E94640087E091E014
:100100000E9464008FE191E00E9464000895ECE792
:10011000F0E0808180648083EAE7F0E08081876896
:1001200080830895ECE7F0E09081907F8F70892BB9
:100130008083EAE7F0E080818064808380917A00A8
:1001400086FDFCCF8091780090917900089587E634
:1001500090E00E944B000E9487008FEF84B90E94BC
:100160007A000E945D00843509F04EC086E00E944E
:1001700092008C019C013695279536952795ABE723
:10018000B4E10E940B0196958795805D0E94560010
:100190009801ADECBCEC0E940B01EC01D695C79523
:1001A000D695C795D695C7959E010E940B01969549
:1001B000879596958795969587959C01220F331F75
:1001C000880F991F880F991F880F991F820F931FFF
:1001D0009E01281B390BC901805D0E945600CE018B
:1001E000880F991FCC0FDD1FCC0FDD1FCC0FDD1F3B
:1001F000C80FD91FC8018C1B9D0B805D0E94560043
:100200008AE00E945600ABCF823509F0A8CF0E9449
:100210005D0085B9A4CFA29FB001B39FC001A39F89
:10022000700D811D1124911DB29F700D811D11242F
:08023000911D0895F894FFCF21
:100238004D656E753A0A0054202D204C6565722074
:10024800706F74656E6369F36D6574726F0A00523E
:0C025800202D20526563696269720A0063
:00000001FF
